S00E00003341746D656C2E73726563F0
S113000029C0000067C0000040C000003EC00000DE
S11300103CC000003AC0000038C0000036C00000F8
S113002034C0000032C0000030C000002EC0000008
S11300302CC000002AC0000028C0000026C0000018
S113004024C0000022C0000020C000001EC0000028
S11300501CC0000011241FBECFE5D4E0DEBFCDBF1D
S113006010E0A0E6B0E0E0E0F4E002C005900D92FC
S1130070A636B107D9F720E0A6E6B0E001C01D928C
S1130080AC36B207E1F7C1D0B9C1BACFFC010FB6A3
S1130090F894609168007091690080916A00909171
S11300A06B000FBE309721F060837183828393834A
S11300B008958FE087BB18BA81B3837E81BB82B376
S11300C08C6182BB08958BB780648BBF85B78260D7
S11300D085BF08951F920F920FB60F9211248F932C
S11300E09F93F8949091670081E0911180E0809350
S11300F0670078949F918F910F900FBE0F901F907F
S11301001895009769F020E030E0E9EFF0E03197CE
S1130110F1F700C000002F5F3F4F82179307A9F744
S11301200895839913C083ED90E30197F1F700C01C
S1130130000083990BC08091660090E0019663E013
S113014070E083D080936600839BFECF849920C0A7
S113015083ED90E30197F1F700C00000849918C083
S11301608091640090916500C2969093650080939D
S113017064008091640090916500853F914030F067
S113018082E390E09093650080936400849BFECFAB
S113019008950F931F93CF93DF93C0E0D0E001E065
S11301A010E0C8010C2E02C0880F991F0A94E2F7D0
S11301B088BB8091640090916500A3DF2196C430D0
S11301C0D10579F7DF91CF911F910F9108958FE0B9
S11301D088BB809164009091650093DF18BA809188
S11301E06400909165008DCF08959DD08F709078B4
S11301F0992324F40197806F9F6F019688BB8091A7
S11302006400909165007DCF089580E090E03EDF2A
S1130210CB018CD04EDF57DF789483DF8091670069
S1130220882389F080916600813031F018F08230A3
S113023029F006C0AEDFF1CFCADFEFCFD6DFEDCFB6
S113024010926600EACF18BAE8CF97FB072E16F48F
S1130250009406D077FD08D00BD007FC05D03EF4FF
S1130260909581959F4F0895709561957F4F08955E
S1130270AA1BBB1B51E107C0AA1FBB1FA617B707C8
S113028010F0A61BB70B881F991F5A95A9F78095E4
S11302909095BC01CD0108958F929F92AF92BF9229
S11302A0CF92DF92EF92FF92CF93DF93EC016881BC
S11302B079818A819B81611571058105910521F4FC
S11302C064E279ED8BE597E02DE133EF41E050E016
S11302D038D049015A019B01AC01A7EAB1E44DD0E1
S11302E06B017C01ACEEB4EFA501940152D0DC01AA
S11302F0CB018C0D9D1DAE1DBF1DB7FF03C0019723
S1130300A109B04888839983AA83BB839F77DF912F
S1130310CF91FF90EF90DF90CF90BF90AF909F90E0
S11303208F900895B9CF80E690E0B6CFA0E0B0E01A
S11303308093600090936100A0936200B093630087
S11303400895052E97FB16F400940FD057FD05D0A1
S113035024D007FC02D046F408C05095409530954F
S113036021953F4F4F4F5F4F08959095809570951D
S113037061957F4F8F4F9F4F089531D0A59F900D6A
S1130380B49F900DA49F800D911D11240895B7FF73
S1130390F4CFF3DF821B930B0895A1E21A2EAA1B5C
S11303A0BB1BFD010DC0AA1FBB1FEE1FFF1FA21721
S11303B0B307E407F50720F0A21BB30BE40BF50B1E
S11303C0661F771F881F991F1A9469F760957095A7
S11303D0809590959B01AC01BD01CF010895A29F2A
S11303E0B001B39FC001A39F700D811D1124911D05
S11303F0B29F700D811D1124911D0895F894FFCFB3
S109040001000000C80029
S9030000FC
